S02200004D6563616E756D2D647269766520776974682072616D70696E672E737265630B
S113000072C00000A0C000009EC000009CC00000A0
S11300109AC0000003C6000096C0000094C000000F
S113002092C0000090C000008EC000008CC0000090
S11300308AC0000088C0000086C0000084C00000A0
S113004082C0000080C000007EC000007CC00000B0
S11300507AC0000078C0000076C0000074C00000C0
S113006072C000000C948B086EC000006CC00000CD
S11300706AC0000068C0000066C0000064C00000E0
S113008062C0000060C000005EC000005CC00000F0
S11300900C949B0858C0000056C0000054C00000D7
S11300A052C0000050C000004EC000004CC0000010
S11300B04AC0000048C0000046C0000044C0000020
S11300C042C0000040C000003EC000000C94AB08D9
S11300D03AC0000038C000000C94EB0834C00000A3
S11300E032C00000450611241FBECFEFD1E2DEBFAF
S11300F0CDBF00E00CBF12E0A0E0B2E0E0E8F6E122
S113010000E00BBF02C007900D92A433B107D9F7EA
S113011022E0A4E3B2E001C01D92AB34B207E1F7E0
S113012010E0C3E7D0E000E006C021970109802F6A
S1130130FE010E94F40AC237D10780E00807A9F73C
S11301400FD60C943E0B5CCF2F923F924F925F924E
S11301506F927F928F929F92AF92BF92CF92DF92D3
S1130160EF92FF920F931F93CF93DF93CDB7DEB738
S11301702E970FB6F894DEBF0FBECDBF3C01FC0135
S1130180118210829E838D8380E092E098878F8312
S1130190412C512C7096FA87E9872D803E80F1011D
S11301A011861086F3011382128289859A859C87B1
S11301B08B878F8098845C01E1E0F0E0FE87ED8717
S11301C0F501019111915F01F401C190D190E19089
S11301D0F1904F01F10160857185072E000C880BA9
S11301E0990B0E94FB0969837A838B839C83B801F2
S11301F0110F880B990B0E94FB09A70196010E941D
S1130200870A9B01AC0169817A818B819C81F4D737
S11302100E94C809F101718760878D859E85F3016D
S11302209383828301969E878D87049749F69FEF77
S1130230491A590A518240828D819E8102969E8379
S11302408D83EF81F8853C96F887EF83F4E04F16B1
S1130250510409F0A2CFC30108969A8389830B85C0
S11302601C85E981FA8161917191FA83E983072EF2
S1130270000C880B990B0E94FB0920E030E049E751
S113028053E40E94870A20E030E040E753E40E94F0
S113029060090E94C809E981FA81778766870E1789
S11302A01F07F9F684E090E0F301918380832E9692
S11302B00FB6F894DEBF0FBECDBFDF91CF911F9173
S11302C00F91FF90EF90DF90CF90BF90AF909F90F1
S11302D08F907F906F905F904F903F902F900895F4
S11302E0CF93DF93EC011982188280E090E0FC0147
S11302F03C96EE0FFF1FEC0FFD1F60817181C196CC
S11303008C0F9D1F66D68881998101969983888375
S11303108430910564F3DF91CF910895FC01118A33
S1130320108A138A128A158A148A178A168A84E014
S113033090E09183808308951F93CF93DF93EC0122
S113034010914002113049F4198A188A8C819D81D8
S11303509B8B8A8B1D8A1C8A26C0143061F4198AEF
S1130360188A8C819D819195819591099B8B8A8BAB
S11303701D8A1C8A18C0123061F48C819D8191956C
S113038081959109998B888B1B8A1A8A1D8A1C8AEC
S11303900AC0183041F48C819D81998B888B1B8A0B
S11303A01A8A1D8A1C8A80913F02813041F48C8113
S11303B09D8144979D838C8310923F0209C08230B3
S11303C039F48C819D8144969D838C8310923F02E5
S11303D060914402862F062E000C990B99231CF47D
S11303E09195819591090397C4F0198A188A062E6C
S11303F0000C770B880B990BFED720E030E048E423
S113040052E45ED720E030E048E453E40E94870AD7
S1130410BFD77B8B6A8B1D8A1C8A60914302062E90
S1130420000C770BCB01772324F488279927861BAC
S1130430970B0397D4F0719561957109072E000C01
S1130440880B990BD8D720E030E048E452E438D741
S113045020E030E048E453E40E94870A99D7798B7E
S1130460688B1B8A1A8A1D8A1C8A60914502062E93
S1130470000C770BCB01772324F488279927861B5C
S1130480970B0397D4F0198A188A1B8A1A8A7195D4
S113049061957109072E000C880B990BACD720E0ED
S11304A030E048E452E40CD720E030E048E453E480
S11304B00E94870A6DD77D8B6C8B103431F4CE018A
S11304C02DDF81E088AB109240028C819D81813FB9
S11304D091052CF080EF90E09D838C8304C09923D8
S11304E014F41D821C82CE012FDECE01F9DECE0172
S11304F015DFDF91CF911F9108952F923F924F9274
S11305005F926F927F928F929F92AF92BF92CF929F
S1130510DF92EF92FF920F931F93CF93DF9300D05C
S113052000D0CDB7DEB79E838D8380913902909140
S11305303A0299231CF4919581959109092E000C96
S1130540AA0BBB0BED81FE8144A155A166A177A145
S113055084179507A607B70704F186A5882309F42D
S113056083C116A61182108280E090E0C1962D818D
S11305703E81820F931FECD4ED81FE8180819181B5
S11305800196918380838430910584F314A215A28B
S113059016A217A2CF01C2DE48C1689412F875955D
S11305A06795579547951694D1F784179507A6072D
S11305B0B7070CF18A019B01000F111F221F331F83
S11305C0000F111F221F331F000F111F221F331F83
S11305D0041B150B260B370B081719072A073B07B3
S11305E024F08D819E817CDE20C1481759076A075B
S11305F07B070CF477C0ED81FE811182108200E04C
S113060010E00F2EF8EDBF2EF02D0F2EF4E3CF2EB9
S1130610F2E0DF2EF02DED81FE81E4A4F5A4F801D3
S11306203C96EE0FFF1F2D813E81E20FF31F4B2DF1
S113063097014203B001439F700D11248081918181
S1130640680F791F072E000C880B990BD4D620E075
S113065030E040E051E45BD72B013C01ED81FE81A9
S113066064A175A186A197A1C6D69B01AC01C30163
S1130670B20126D62B013C01ED81FE8160A771A752
S113068082A793A7F6016581768187819085B3D689
S1130690A30192013CD720E030E040E252E4ACD523
S11306A02B013C01B701FF0C880B990BA4D69B01CD
S11306B0AC01C301B2012BD76BD698012F5C3F4F1D
S11306C08D819E81820F931F84D4ED81FE810081F0
S11306D011810F5F1F4F11830083043011050CF447
S11306E09ACFA3C0ED81FE811182108200E010E058
S11306F00F2EF4E32F2EF2E03F2EF02D0F2EF8E113
S11307006F2E77247394F02DF8013C96EE0FFF1FA3
S11307102D813E81E20FF31F80809180F901A4A412
S1130720B5A448ED95014203B001439F700D112417
S1130730680D791D072E000C880B990B5CD620E000
S113074030E040E051E4E3D66B017C01ED81FE81B1
S113075064A175A186A197A14ED69B01AC01C701E6
S1130760B601AED56B017C01F7FAF094F7F8F0947A
S1130770ED81FE81C0A6D1A6E2A6F3A6F1016581B2
S113078076818781908537D669837A838B839C832E
S1130790B5010B2C000C880B990B2DD6A7019601E3
S11307A0B6D69B01AC0169817A818B819C81AFD6DD
S11307B06B017C01B401660F771F660F771F660F0C
S11307C0771F072E000C880B990B15D69B01AC01E3
S11307D0C701B60111D56B017C01A69CB001A79C91
S11307E0700DB69C700D1124072E000C880B990B0C
S11307F002D69B01AC01C701B601FDD4C9D598014D
S11308002F5C3F4F8D819E81820F931FE2D3ED8138
S1130810FE81008111810F5F1F4F1183008304301B
S113082011050CF471CF81E086A780913902909173
S11308303A023BD489E031D42091390230913A0212
S113084040913B0250913C02A6EBB0E0C3D6D3D515
S113085020E030E048E453E433D59AD5CB0125D4E5
S113086080E392E04AD405C0ED81FE8111821082BA
S11308707BCE26960FB6F894DEBF0FBECDBFDF91B8
S1130880CF911F910F91FF90EF90DF90CF90BF9089
S1130890AF909F908F907F906F905F904F903F901C
S11308A02F900895CF93DF93EC0180913F02813024
S11308B059F58EE190E0998B888B8E819F819B8B7B
S11308C08A8B1D8A1C8A8CEA9DE0A0E0B0E088A394
S11308D099A3AAA3BBA388ED9EE0A0E0B0E08CA3FB
S11308E09DA3AEA3BFA381E090E09DA78CA7109227
S11308F0390210923A0210923B0210923C02CE014D
S113090023DC10923F02B5C0823071F58EE190E095
S1130910998B888B8E819F819195819591099B8B71
S11309208A8B1D8A1C8A80E197E2A0E0B0E088A34C
S113093099A3AAA3BBA380E39AE2A0E0B0E08CA3AE
S11309409DA3AEA3BFA38FEF9FEF9DA78CA710928B
S1130950390210923A0210923B0210923C02CE01EC
S1130960F3DB10923F0285C0843059F58EE190E0AC
S1130970998B888B8E819F819B8B8A8B1D8A1C8A85
S113098080E197E2A0E0B0E088A399A3AAA3BBA367
S113099080E39AE2A0E0B0E08CA39DA3AEA3BFA342
S11309A081E090E09DA78CA71092390210923A0240
S11309B010923B0210923C02CE01C6DB10923F0221
S11309C058C0883051F58EE190E0998B888B8E81E8
S11309D09F819195819591099B8B8A8B1D8A1C8A95
S11309E080ED97E0A0E0B0E088A399A3AAA3BBA3FD
S11309F08CA39DA3AEA3BFA38FEF9FEF9DA78CA74E
S1130A001092390210923A0210923B0210923C0268
S1130A10CE019ADB10923F022CC0803251F58EE158
S1130A2090E0998B888B8E819F819B8B8A8B1D8A0A
S1130A301C8A80E59DE2A0E0B0E088A399A3AAA364
S1130A40BBA388E391E3A0E0B0E08CA39DA3AEA395
S1130A50BFA381E090E09DA78CA710923902109269
S1130A603A0210923B0210923C02CE016DDB1092CE
S1130A703F0280914002803271F58EE190E0998BC3
S1130A80888B8E819F819195819591099B8B8A8B0F
S1130A901D8A1C8A80E59DE2A0E0B0E088A399A3AA
S1130AA0AAA3BBA388E391E3A0E0B0E08CA39DA339
S1130AB0AEA3BFA38FEF9FEF9DA78CA7109239021F
S1130AC010923A0210923B0210923C02CE013CDB9F
S1130AD0109240021AC08034C1F4CE011FDC18A267
S1130AE019A21AA21BA21CA21DA21EA21FA21DA60D
S1130AF01CA61092390210923A0210923B021092F4
S1130B003C021EA618AA10924002CE01F6DCDF9128
S1130B10CF910895CF93DF93EC0180913F0280340D
S1130B2031F49FA581E089278FA710923F028FA5FA
S1130B308823A9F088A9811104C00CC088A988233E
S1130B4049F0CE01AFDE8FA58111F8CF08C088A986
S1130B50811105C0CE01F0DB8FA58111F8CFDF91A3
S1130B60CF910895FC011382128220E030E0D90174
S1130B70A15CBD4F1C92228133812F5F3F4F338391
S1130B802283283031059CF30895CF92DF92EF92AF
S1130B90FF920F931F93CF938C0184EB90E0F801A5
S1130BA09783868380E590E0958384836801F8E0E9
S1130BB0CF0ED11C780181E3E80EF11CC1E0F601EF
S1130BC0119211926F01178216826C2FC7013DD2C8
S1130BD0FFEFEF1AFF0ACF5FC53089F7F80110A2C3
S1130BE011A212A213A214A215A216A217A210A651
S1130BF011A612A613A616A610AA17A6C8018EDB64
S1130C00C801B0DF65E084E392E084D0CF911F9106
S1130C100F91FF90EF90DF90CF9008951F920F9265
S1130C200FB60F9211240BB60F928F939F93AF932D
S1130C30BF93EF93FF93049B0EC0E4E3F2E085813E
S1130C409681A781B0850197A109B109858396830F
S1130C50A783B0870DC0E4E3F2E085819681A78184
S1130C60B0850196A11DB11D85839683A783B087A6
S1130C70FF91EF91BF91AF919F918F910F900BBE18
S1130C800F900FBE0F901F901895E4E3F2E01182CD
S1130C901282138214821582168217821086089596
S1130CA07894FC018081813049F4EB98E9E6F0E026
S1130CB0808180688083EB9AE39A0895823049F4B6
S1130CC0E898E9E6F0E0808182608083E89AE09A1F
S1130CD00895833049F4E998E9E6F0E0808188607A
S1130CE08083E99AE19A0895843049F4EA98E9E620
S1130CF0F0E0808180628083EA9AE29A08958530E8
S1130D0041F4EC98EAE6F0E0808182608083EC9A1A
S1130D10E49A0895FC016083613029F453980B9898
S1130D205B9A139A1BC0623029F450980898589A19
S1130D30109A14C0633029F451980998599A119A59
S1130D400DC0643029F452980A985A9A129A06C02F
S1130D50653021F46C980C98749A149AA1CF089574
S1130D60CF93DF93CDB7DEB7E5970FB6F894DEBF28
S1130D700FBECDBF789477D184D1CE01019605DF23
S1130D80CE010196C7DEFCCFFC0180818130F1F4F5
S1130D90E7E0F1E0808180648083808180688083E3
S1130DA0EAE0F1E0808180628083E0E2F1E080812A
S1130DB08A608083E1E2F1E080818A61808389EF47
S1130DC090E0909327018093260108958230F1F4F6
S1130DD0E7E0F1E0808184608083808188608083A3
S1130DE0EAE0F1E0808188608083E0E2F1E08081E4
S1130DF082688083E1E2F1E080818A61808389EF07
S1130E0090E0909327018093260108958330F1F4B4
S1130E10E7E0F1E08081806180838081806280836B
S1130E20EAE0F1E0808180618083E0E2F1E08081AA
S1130E3082628083E1E2F1E080818A61808389EFCC
S1130E4090E0909327018093260108958430E9F47B
S1130E50E7E0F1E08081816080838081826080832B
S1130E60E1E0F1E0808188608083E0EAF0E0808165
S1130E7082688083E1EAF0E080818A61808389EF7F
S1130E8090E09093A7008093A6000895FC018081D0
S1130E90823091F018F4813031F008958330A9F054
S1130EA08430E1F00895E8E0F1E08081806480839B
S1130EB080818F7780830895E8E0F1E08081846009
S1130EC080838081877F80830895E8E0F1E08081DA
S1130ED08061808380818F7D80830895E8E0F1E0E4
S1130EE080818160808380818D7F80830895FC016F
S1130EF08081823091F018F4813031F0089583308C
S1130F00A9F08430E1F00895E8E0F1E080818F7B7E
S1130F1080838081806880830895E8E0F1E08081A7
S1130F208B7F80838081886080830895E8E0F1E08E
S1130F3080818F7E80838081806280830895E8E051
S1130F40F1E080818E7F8083808182608083089538
S1130F50FC0180818230B1F018F4813031F00895C1
S1130F608330E9F0843041F10895E8E0F1E08081D4
S1130F708F7B808380818F77808310922D011092E4
S1130F802C010895E8E0F1E080818B7F80838081EB
S1130F90877F808310922901109228010895E8E048
S1130FA0F1E080818F7E808380818F7D80831092A9
S1130FB02B0110922A010895E8E0F1E080818E7FF0
S1130FC0808380818D7F80831092A9001092A80075
S1130FD008950F931F93CF93DF938C01EB011C169D
S1130FE01D060CF453DFC93FD10544F4DD2344F45A
S1130FF0D195C195D109C8017ADF02C0C9EFD0E00B
S1131000F8018081823071F018F4813031F018C019
S1131010833069F0843081F013C0D0932D01C093E4
S11310202C010EC0D0932901C093280109C0D0938C
S11310302B01C0932A0104C0D093A900C093A80037
S1131040DF91CF911F910F910895CF93DF93EC011E
S113105068839ADECE017CDF60E070E0CE01B9DF08
S1131060DF91CF91089510923E021092D50087E649
S11310708093D40088E98093D10086E08093D200E5
S113108008951092350189E18093340188E98093B1
S1131090310186E0809332010895E0E3F1E090812C
S11310A095FFFDCF8093360108950F931F93CF933F
S11310B0DF93CDB7DEB764970FB6F894DEBF0FBEEB
S11310C0CDBF4AE0BE016F5F7F4FA5D289818823DF
S11310D049F08E010E5F1F4FE0DFF80181918F010F
S11310E08111FACF64960FB6F894DEBF0FBECDBF60
S11310F0DF91CF911F910F910895CF93DF93EC016E
S11311008881882329F02196C8DF89918111FCCF39
S1131110DF91CF9108951F920F920FB60F92112471
S11311208F938091C60080934A028F910F900FBED7
S11311300F901F9018951F920F920FB60F921124C3
S11311408F938091CE00809349028F910F900FBEB0
S11311500F901F9018951F920F920FB60F921124A3
S11311600BB60F922F938F939F93EF93FF938091DE
S1131170D6008093470290913D029923D9F0909133
S11311803E02943030F4E92FF0E0E15CFD4F8083BF
S113119007C0E92FF0E0E15CFD4F2EEC280F20831F
S11311A09F5F983018F490933E0204C010923E0260
S11311B010923D028F3719F481E080933D02FF9134
S11311C0EF919F918F912F910F900BBE0F900FBEB7
S11311D00F901F9018951F920F920FB60F92112423
S11311E08F9380913601809348028F910F900FBEA8
S11311F00F901F9018955058BB27AA270ED04DC1A9
S11312003ED130F043D120F031F49F3F11F41EF46D
S113121033C10EF4E095E7FB29C1E92F4FD180F3E8
S1131220BA17620773078407950718F071F49EF5DF
S113123067C10EF4E0950B2EBA2FA02D0B01B90156
S113124090010C01CA01A0011124FF27591B99F038
S1131250593F50F4503E68F11A16F040A22F232F44
S1131260342F4427585FF3CF469537952795A79594
S1131270F0405395C9F77EF41F16BA0B620B730B3B
S1131280840BBAF09150A1F0FF0FBB1F661F771FAC
S1131290881FC2F70EC0BA0F621F731F841F48F461
S11312A0879577956795B795F7959E3F08F0B3CFE7
S11312B09395880F08F09927EE0F979587950895D1
S11312C00CD0EBC0E3D040F0DAD030F021F45F3F33
S11312D019F0CCC0511115C1CFC0F0D098F39923A7
S11312E0C9F35523B1F3951B550BBB27AA276217E6
S11312F07307840738F09F5F5F4F220F331F441F2B
S1131300AA1FA9F333D00E2E3AF0E0E830D0915062
S11313105040E695001CCAF729D0FE2F27D0660F4F
S1131320771F881FBB1F261737074807AB07B0E88E
S113133009F0BB0B802DBF01FF2793585F4F2AF0A4
S11313409E3F510568F092C0DCC05F3FECF3983ECD
S1131350DCF3869577956795B795F7959F5FC9F701
S1131360880F911D9695879597F90895E1E0660F8A
S1131370771F881FBB1F621773078407BA0720F003
S1131380621B730B840BBA0BEE1F88F7E09508956C
S113139004D06894B111B5C0089598D088F09F57CF
S11313A090F0B92F9927B751A0F0D1F0660F771FAD
S11313B0881F991F1AF0BA95C9F712C0B13081F08D
S11313C09FD0B1E008959CC0672F782F8827B85F1D
S11313D039F0B93FCCF3869577956795B395D9F7EE
S11313E03EF490958095709561957F4F8F4F9F4FF8
S11313F00895E89409C097FB3EF490958095709504
S113140061957F4F8F4F9F4F9923A9F0F92F96E94C
S1131410BB279395F695879577956795B795F111C1
S1131420F8CFFAF4BB0F11F460FF1BC06F5F7F4F5E
S11314308F4F9F4F16C0882311F096E911C0772370
S113144021F09EE8872F762F05C0662371F096E879
S1131450862F70E060E02AF09A95660F771F881F48
S1131460DAF7880F9695879597F9089597F99F6706
S113147080E870E060E008959FEF80EC0895002418
S11314800A941616170618060906089500240A94E5
S113149012161306140605060895092E0394000C6B
S11314A011F4882352F0BB0F40F4BF2B11F460FFFA
S11314B004C06F5F7F4F8F4F9F4F089557FD905823
S11314C0440F551F59F05F3F71F04795880F97FB04
S11314D0991F61F09F3F79F08795089512161306BE
S11314E01406551FF2CF4695F1DF08C016161706ED
S11314F01806991FF1CF8695710561050894089522
S1131500E894BB2766277727CB0197F908950BD07A
S1131510C4CFB5DF28F0BADF18F0952309F0A6CFC1
S1131520ABCF1124EECFCADFA0F3959FD1F3950F73
S113153050E0551F629FF001729FBB27F00DB11D53
S1131540639FAA27F00DB11DAA1F649F6627B00DE3
S1131550A11D661F829F2227B00DA11D621F739FCC
S1131560B00DA11D621F839FA00D611D221F749FDA
S11315703327A00D611D231F849F600D211D822F21
S1131580762F6A2F11249F5750408AF0E1F0882368
S11315904AF0EE0FFF1FBB1F661F771F881F915075
S11315A05040A9F79E3F510570F060CFAACF5F3F2E
S11315B0ECF3983EDCF3869577956795B795F795A8
S11315C0E7959F5FC1F7FE2B880F911D9695879530
S11315D097F9089511D0A59F900DB49F900DA49FE5
S11315E0800D911D11240895EE0FFF1F881F8BBFDE
S11315F00790F691E02D1994A29FB001B39FC0010A
S1131600A39F700D811D1124911DB29F700D811D2A
S11316101124911D0895BB274A3031F4992322F4F3
S1131620BDE2909581959F4F01C0BB27FB015527D3
S1131630AA27880F991FAA1FA41710F0A41B83952B
S11316405051B9F7A05DAA3308F0A95DA1930097A2
S113165079F7B111B1931192CB0100C0DC01FC0107
S1131660672F71917723E1F7329704C07C916D93D2
S113167070836291AE17BF07C8F30895F894FFCF43
S1131680F4FD34BFF4FD343FF4FD34BFF4FD343FC6
S1131690F4FD343FF4FD343FF4FD34BFF4FD343F36
S11316A0F4FD343FF4FD343FF4FD343FF4FD34BF26
S10716B00A0D00001B
S9030000FC
